{
  "_format": "hh-sol-artifact-1",
  "contractName": "Email",
  "sourceName": "contracts/Email.sol",
  "abi": [
    {
      "anonymous": false,
      "inputs": [
        {
          "indexed": true,
          "internalType": "address",
          "name": "from",
          "type": "address"
        },
        {
          "indexed": true,
          "internalType": "address",
          "name": "to",
          "type": "address"
        },
        {
          "indexed": false,
          "internalType": "string",
          "name": "encryptedMessage",
          "type": "string"
        }
      ],
      "name": "Mail",
      "type": "event"
    },
    {
      "inputs": [],
      "name": "getEncrPrivKey",
      "outputs": [
        {
          "internalType": "string",
          "name": "",
          "type": "string"
        }
      ],
      "stateMutability": "view",
      "type": "function"
    },
    {
      "inputs": [
        {
          "internalType": "address",
          "name": "_addr",
          "type": "address"
        }
      ],
      "name": "getPubKey",
      "outputs": [
        {
          "internalType": "string",
          "name": "",
          "type": "string"
        }
      ],
      "stateMutability": "view",
      "type": "function"
    },
    {
      "inputs": [
        {
          "internalType": "address",
          "name": "_addr",
          "type": "address"
        }
      ],
      "name": "isRegistered",
      "outputs": [
        {
          "internalType": "bool",
          "name": "",
          "type": "bool"
        }
      ],
      "stateMutability": "view",
      "type": "function"
    },
    {
      "inputs": [
        {
          "internalType": "string",
          "name": "_encPrivKey",
          "type": "string"
        },
        {
          "internalType": "string",
          "name": "_pubKey",
          "type": "string"
        }
      ],
      "name": "register",
      "outputs": [],
      "stateMutability": "nonpayable",
      "type": "function"
    },
    {
      "inputs": [
        {
          "internalType": "address",
          "name": "_to",
          "type": "address"
        },
        {
          "internalType": "string",
          "name": "_fromPubKey",
          "type": "string"
        },
        {
          "internalType": "string",
          "name": "_toPubKey",
          "type": "string"
        },
        {
          "internalType": "string",
          "name": "_encryptedMessage",
          "type": "string"
        }
      ],
      "name": "sendMail",
      "outputs": [],
      "stateMutability": "nonpayable",
      "type": "function"
    }
  ],
  "bytecode": "0x608060405234801561001057600080fd5b506115de806100206000396000f3fe608060405234801561001057600080fd5b50600436106100575760003560e01c80632c6ee4de1461005c5780633ffbd47f14610078578063c3c5a54714610094578063fce9512a146100c4578063fd19dc15146100f4575b600080fd5b61007660048036038101906100719190610ded565b610112565b005b610092600480360381019061008d9190610e98565b61033d565b005b6100ae60048036038101906100a99190610dc4565b610685565b6040516100bb91906110da565b60405180910390f35b6100de60048036038101906100d99190610dc4565b61071c565b6040516100eb91906110f5565b60405180910390f35b6100fc6108db565b60405161010991906110f5565b60405180910390f35b826040516020016101239190611097565b604051602081830303815290604052805190602001206000803373ffffffffffffffffffffffffffffffffffffffff1673ffffffffffffffffffffffffffffffffffffffff16815260200190815260200160002060010160405160200161018a91906110ae565b60405160208183030381529060405280519060200120146101e0576040517f08c379a00000000000000000000000000000000000000000000000000000000081526004016101d790611229565b60405180910390fd5b816040516020016101f19190611097565b604051602081830303815290604052805190602001206000808673ffffffffffffffffffffffffffffffffffffffff1673ffffffffffffffffffffffffffffffffffffffff16815260200190815260200160002060010160405160200161025891906110ae565b60405160208183030381529060405280519060200120146102ae576040517f08c379a00000000000000000000000000000000000000000000000000000000081526004016102a590611209565b60405180910390fd5b6102d260405180606001604052806021815260200161158860219139338684610a98565b8373ffffffffffffffffffffffffffffffffffffffff163373ffffffffffffffffffffffffffffffffffffffff167f437b56a9b2eb48b00b73dc38ecf8be9cbee5e4f07cd4dbed27996844524d2b148360405161032f91906110f5565b60405180910390a350505050565b60008060003373ffffffffffffffffffffffffffffffffffffffff1673ffffffffffffffffffffffffffffffffffffffff1681526020019081526020016000206040518060400160405290816000820180546103989061137b565b80601f01602080910402602001604051908101604052809291908181526020018280546103c49061137b565b80156104115780601f106103e657610100808354040283529160200191610411565b820191906000526020600020905b8154815290600101906020018083116103f457829003601f168201915b5050505050815260200160018201805461042a9061137b565b80601f01602080910402602001604051908101604052809291908181526020018280546104569061137b565b80156104a35780601f10610478576101008083540402835291602001916104a3565b820191906000526020600020905b81548152906001019060200180831161048657829003601f168201915b50505050508152505090506040516020016104bd906110c5565b6040516020818303038152906040528051906020012081602001516040516020016104e89190611097565b604051602081830303815290604052805190602001201461053e576040517f08c379a000000000000000000000000000000000000000000000000000000000815260040161053590611249565b60405180910390fd5b60405160200161054d906110c5565b6040516020818303038152906040528051906020012081600001516040516020016105789190611097565b60405160208183030381529060405280519060200120146105ce576040517f08c379a00000000000000000000000000000000000000000000000000000000081526004016105c590611249565b60405180910390fd5b6105f26040518060800160405280604181526020016114e360419139338585610b3a565b818160200181905250828160000181905250806000803373ffffffffffffffffffffffffffffffffffffffff1673ffffffffffffffffffffffffffffffffffffffff168152602001908152602001600020600082015181600001908051906020019061065f929190610ca4565b50602082015181600101908051906020019061067c929190610ca4565b50905050505050565b6000604051602001610696906110c5565b604051602081830303815290604052805190602001206000808473ffffffffffffffffffffffffffffffffffffffff1673ffffffffffffffffffffffffffffffffffffffff1681526020019081526020016000206001016040516020016106fd91906110ae565b6040516020818303038152906040528051906020012014159050919050565b606061080a6040518060600160405280602f8152602001611559602f9139836000808673ffffffffffffffffffffffffffffffffffffffff1673ffffffffffffffffffffffffffffffffffffffff16815260200190815260200160002060010180546107879061137b565b80601f01602080910402602001604051908101604052809291908181526020018280546107b39061137b565b80156108005780601f106107d557610100808354040283529160200191610800565b820191906000526020600020905b8154815290600101906020018083116107e357829003601f168201915b5050505050610bdc565b6000808373ffffffffffffffffffffffffffffffffffffffff1673ffffffffffffffffffffffffffffffffffffffff16815260200190815260200160002060010180546108569061137b565b80601f01602080910402602001604051908101604052809291908181526020018280546108829061137b565b80156108cf5780601f106108a4576101008083540402835291602001916108cf565b820191906000526020600020905b8154815290600101906020018083116108b257829003601f168201915b50505050509050919050565b60606109c960405180606001604052806035815260200161152460359139336000803373ffffffffffffffffffffffffffffffffffffffff1673ffffffffffffffffffffffffffffffffffffffff16815260200190815260200160002060000180546109469061137b565b80601f01602080910402602001604051908101604052809291908181526020018280546109729061137b565b80156109bf5780601f10610994576101008083540402835291602001916109bf565b820191906000526020600020905b8154815290600101906020018083116109a257829003601f168201915b5050505050610bdc565b6000803373ffffffffffffffffffffffffffffffffffffffff1673ffffffffffffffffffffffffffffffffffffffff1681526020019081526020016000206000018054610a159061137b565b80601f0160208091040260200160405190810160405280929190818152602001828054610a419061137b565b8015610a8e5780601f10610a6357610100808354040283529160200191610a8e565b820191906000526020600020905b815481529060010190602001808311610a7157829003601f168201915b5050505050905090565b610b3484848484604051602401610ab29493929190611117565b6040516020818303038152906040527f800a1c67000000000000000000000000000000000000000000000000000000007bffffffffffffffffffffffffffffffffffffffffffffffffffffffff19166020820180517bffffffffffffffffffffffffffffffffffffffffffffffffffffffff8381831617835250505050610c7b565b50505050565b610bd684848484604051602401610b5494939291906111af565b6040516020818303038152906040527f245986f2000000000000000000000000000000000000000000000000000000007bffffffffffffffffffffffffffffffffffffffffffffffffffffffff19166020820180517bffffffffffffffffffffffffffffffffffffffffffffffffffffffff8381831617835250505050610c7b565b50505050565b610c76838383604051602401610bf49392919061116a565b6040516020818303038152906040527fe0e9ad4f000000000000000000000000000000000000000000000000000000007bffffffffffffffffffffffffffffffffffffffffffffffffffffffff19166020820180517bffffffffffffffffffffffffffffffffffffffffffffffffffffffff8381831617835250505050610c7b565b505050565b60008151905060006a636f6e736f6c652e6c6f679050602083016000808483855afa5050505050565b828054610cb09061137b565b90600052602060002090601f016020900481019282610cd25760008555610d19565b82601f10610ceb57805160ff1916838001178555610d19565b82800160010185558215610d19579182015b82811115610d18578251825591602001919060010190610cfd565b5b509050610d269190610d2a565b5090565b5b80821115610d43576000816000905550600101610d2b565b5090565b6000610d5a610d558461128e565b611269565b905082815260208101848484011115610d7257600080fd5b610d7d848285611339565b509392505050565b600081359050610d94816114cb565b92915050565b600082601f830112610dab57600080fd5b8135610dbb848260208601610d47565b91505092915050565b600060208284031215610dd657600080fd5b6000610de484828501610d85565b91505092915050565b60008060008060808587031215610e0357600080fd5b6000610e1187828801610d85565b945050602085013567ffffffffffffffff811115610e2e57600080fd5b610e3a87828801610d9a565b935050604085013567ffffffffffffffff811115610e5757600080fd5b610e6387828801610d9a565b925050606085013567ffffffffffffffff811115610e8057600080fd5b610e8c87828801610d9a565b91505092959194509250565b60008060408385031215610eab57600080fd5b600083013567ffffffffffffffff811115610ec557600080fd5b610ed185828601610d9a565b925050602083013567ffffffffffffffff811115610eee57600080fd5b610efa85828601610d9a565b9150509250929050565b610f0d816112fb565b82525050565b610f1c8161130d565b82525050565b6000610f2d826112d4565b610f3781856112df565b9350610f47818560208601611348565b610f508161143c565b840191505092915050565b6000610f66826112d4565b610f7081856112f0565b9350610f80818560208601611348565b80840191505092915050565b60008154610f998161137b565b610fa381866112f0565b94506001821660008114610fbe5760018114610fcf57611002565b60ff19831686528186019350611002565b610fd8856112bf565b60005b83811015610ffa57815481890152600182019150602081019050610fdb565b838801955050505b50505092915050565b6000611018601a836112df565b91506110238261144d565b602082019050919050565b600061103b601c836112df565b915061104682611476565b602082019050919050565b600061105e6000836112f0565b91506110698261149f565b600082019050919050565b6000611081601b836112df565b915061108c826114a2565b602082019050919050565b60006110a38284610f5b565b915081905092915050565b60006110ba8284610f8c565b915081905092915050565b60006110d082611051565b9150819050919050565b60006020820190506110ef6000830184610f13565b92915050565b6000602082019050818103600083015261110f8184610f22565b905092915050565b600060808201905081810360008301526111318187610f22565b90506111406020830186610f04565b61114d6040830185610f04565b818103606083015261115f8184610f22565b905095945050505050565b600060608201905081810360008301526111848186610f22565b90506111936020830185610f04565b81810360408301526111a58184610f22565b9050949350505050565b600060808201905081810360008301526111c98187610f22565b90506111d86020830186610f04565b81810360408301526111ea8185610f22565b905081810360608301526111fe8184610f22565b905095945050505050565b600060208201905081810360008301526112228161100b565b9050919050565b600060208201905081810360008301526112428161102e565b9050919050565b6000602082019050818103600083015261126281611074565b9050919050565b6000611273611284565b905061127f82826113ad565b919050565b6000604051905090565b600067ffffffffffffffff8211156112a9576112a861140d565b5b6112b28261143c565b9050602081019050919050565b60008190508160005260206000209050919050565b600081519050919050565b600082825260208201905092915050565b600081905092915050565b600061130682611319565b9050919050565b60008115159050919050565b600073ffffffffffffffffffffffffffffffffffffffff82169050919050565b82818337600083830152505050565b60005b8381101561136657808201518184015260208101905061134b565b83811115611375576000848401525b50505050565b6000600282049050600182168061139357607f821691505b602082108114156113a7576113a66113de565b5b50919050565b6113b68261143c565b810181811067ffffffffffffffff821117156113d5576113d461140d565b5b80604052505050565b7f4e487b7100000000000000000000000000000000000000000000000000000000600052602260045260246000fd5b7f4e487b7100000000000000000000000000000000000000000000000000000000600052604160045260246000fd5b6000601f19601f8301169050919050565b7f60746f60205075626c6963204b6579204d69736d617463682121000000000000600082015250565b7f6066726f6d60205075626c6963204b6579204d69736d61746368212100000000600082015250565b50565b7f796f752061726520616c72656164792072656769737465726564210000000000600082015250565b6114d4816112fb565b81146114df57600080fd5b5056fe72656769737465722829203d3d3e20416464726573733a205b25735d2c2050726976617465204b65793a205b25735d2c205075626c6963204b65793a205b25735d676574456e6372507269764b65792829203d3d3e20416464726573733a205b25735d2c2050726976617465204b65793a205b25735d6765745075624b65792829203d3d3e20416464726573733a205b25735d2c205075626c6963204b65793a205b25735d7b2066726f6d3a2025732c20746f3a2025732c206d6573736167653a202573207da264697066735822122005f210ea25cff4488f9397a165f5582027408f3bb1e92b18eebb6bf7276da56a64736f6c63430008040033",
  "linkReferences": {},
  "deployedLinkReferences": {}
}